{
  "contractName": "Ganache",
  "abi": [
    {
      "inputs": [],
      "stateMutability": "nonpayable",
      "type": "constructor"
    },
    {
      "anonymous": false,
      "inputs": [
        {
          "indexed": true,
          "internalType": "address",
          "name": "sender",
          "type": "address"
        },
        {
          "indexed": false,
          "internalType": "string",
          "name": "_message",
          "type": "string"
        }
      ],
      "name": "NewMsg",
      "type": "event"
    },
    {
      "inputs": [],
      "name": "owner",
      "outputs": [
        {
          "internalType": "address",
          "name": "",
          "type": "address"
        }
      ],
      "stateMutability": "view",
      "type": "function"
    },
    {
      "inputs": [
        {
          "internalType": "string",
          "name": "_message",
          "type": "string"
        }
      ],
      "name": "newMessage",
      "outputs": [],
      "stateMutability": "nonpayable",
      "type": "function"
    },
    {
      "inputs": [],
      "name": "getMessage",
      "outputs": [
        {
          "internalType": "string",
          "name": "",
          "type": "string"
        }
      ],
      "stateMutability": "view",
      "type": "function"
    }
  ],
  "bytecode": "0x608060405234801561000f575f80fd5b50335f806101000a81548173ffffffffffffffffffffffffffffffffffffffff021916908373ffffffffffffffffffffffffffffffffffffffff16021790555061073d8061005c5f395ff3fe608060405234801561000f575f80fd5b506004361061003f575f3560e01c80638da5cb5b14610043578063b6b9255e14610061578063ce6d41de1461007d575b5f80fd5b61004b61009b565b60405161005891906101ee565b60405180910390f35b61007b60048036038101906100769190610354565b6100be565b005b61008561011f565b6040516100929190610415565b60405180910390f35b5f8054906101000a900473ffffffffffffffffffffffffffffffffffffffff1681565b80600190816100cd9190610638565b503373ffffffffffffffffffffffffffffffffffffffff167f03f928f31fb04cfc03e0e23a8b66dc26d21352a326b3d0aab182e89150aabeab826040516101149190610415565b60405180910390a250565b60606001805461012e90610462565b80601f016020809104026020016040519081016040528092919081815260200182805461015a90610462565b80156101a55780601f1061017c576101008083540402835291602001916101a5565b820191905f5260205f20905b81548152906001019060200180831161018857829003601f168201915b5050505050905090565b5f73ffffffffffffffffffffffffffffffffffffffff82169050919050565b5f6101d8826101af565b9050919050565b6101e8816101ce565b82525050565b5f6020820190506102015f8301846101df565b92915050565b5f604051905090565b5f80fd5b5f80fd5b5f80fd5b5f80fd5b5f601f19601f8301169050919050565b7f4e487b71000000000000000000000000000000000000000000000000000000005f52604160045260245ffd5b61026682610220565b810181811067ffffffffffffffff8211171561028557610284610230565b5b80604052505050565b5f610297610207565b90506102a3828261025d565b919050565b5f67ffffffffffffffff8211156102c2576102c1610230565b5b6102cb82610220565b9050602081019050919050565b828183375f83830152505050565b5f6102f86102f3846102a8565b61028e565b9050828152602081018484840111156103145761031361021c565b5b61031f8482856102d8565b509392505050565b5f82601f83011261033b5761033a610218565b5b813561034b8482602086016102e6565b91505092915050565b5f6020828403121561036957610368610210565b5b5f82013567ffffffffffffffff81111561038657610385610214565b5b61039284828501610327565b91505092915050565b5f81519050919050565b5f82825260208201905092915050565b5f5b838110156103d25780820151818401526020810190506103b7565b5f8484015250505050565b5f6103e78261039b565b6103f181856103a5565b93506104018185602086016103b5565b61040a81610220565b840191505092915050565b5f6020820190508181035f83015261042d81846103dd565b905092915050565b7f4e487b71000000000000000000000000000000000000000000000000000000005f52602260045260245ffd5b5f600282049050600182168061047957607f821691505b60208210810361048c5761048b610435565b5b50919050565b5f819050815f5260205f209050919050565b5f6020601f8301049050919050565b5f82821b905092915050565b5f600883026104ee7fffffffffffffffffffffffffffffffffffffffffffffffffffffffffffffffff826104b3565b6104f886836104b3565b95508019841693508086168417925050509392505050565b5f819050919050565b5f819050919050565b5f61053c61053761053284610510565b610519565b610510565b9050919050565b5f819050919050565b61055583610522565b61056961056182610543565b8484546104bf565b825550505050565b5f90565b61057d610571565b61058881848461054c565b505050565b5b818110156105ab576105a05f82610575565b60018101905061058e565b5050565b601f8211156105f0576105c181610492565b6105ca846104a4565b810160208510156105d9578190505b6105ed6105e5856104a4565b83018261058d565b50505b505050565b5f82821c905092915050565b5f6106105f19846008026105f5565b1980831691505092915050565b5f6106288383610601565b9150826002028217905092915050565b6106418261039b565b67ffffffffffffffff81111561065a57610659610230565b5b6106648254610462565b61066f8282856105af565b5f60209050601f8311600181146106a0575f841561068e578287015190505b610698858261061d565b8655506106ff565b601f1984166106ae86610492565b5f5b828110156106d5578489015182556001820191506020850194506020810190506106b0565b868310156106f257848901516106ee601f891682610601565b8355505b6001600288020188555050505b50505050505056fea26469706673582212202503f72c390b77481fea788ba7ecb63d5e79873ec96669d465d25778a9a0dcf664736f6c63430008140033",
  "immutableReferences": {},
  "source": "//SPDX-License-Identifier: GPL-3.0\r\n\r\n\r\npragma solidity 0.8.20;\r\n\r\ncontract Ganache {\r\n    address public owner;\r\n    string message;\r\n\r\n    constructor(){\r\n        owner = msg.sender;\r\n    }\r\n\r\n    event NewMsg (address indexed sender, string _message ) ;\r\n\r\n    function newMessage (string memory _message) public {\r\n        message = _message;\r\n        emit NewMsg (msg.sender,  _message);\r\n    }\r\n\r\n    function getMessage() public view returns (string memory){\r\n        return message;\r\n    }\r\n\r\n}",
  "sourcePath": "C:\\Users\\Usuario\\Desktop\\Proyecto_truffle\\contracts\\Ganache.sol",
  "compiler": {
    "name": "solc",
    "version": "0.8.20+commit.a1b79de6.Emscripten.clang"
  },
  "schemaVersion": "3.4.7",
  "updatedAt": "2025-02-15T10:24:43.995Z",
  "devdoc": {
    "kind": "dev",
    "methods": {},
    "version": 1
  },
  "userdoc": {
    "kind": "user",
    "methods": {},
    "version": 1
  }
}