{
  "contractName": "VendingMachine",
  "abi": [
    {
      "inputs": [],
      "stateMutability": "nonpayable",
      "type": "constructor"
    },
    {
      "anonymous": false,
      "inputs": [
        {
          "indexed": false,
          "internalType": "string",
          "name": "_name",
          "type": "string"
        },
        {
          "indexed": false,
          "internalType": "uint8",
          "name": "_price",
          "type": "uint8"
        }
      ],
      "name": "newSnackAdded",
      "type": "event"
    },
    {
      "anonymous": false,
      "inputs": [
        {
          "indexed": false,
          "internalType": "string",
          "name": "_name",
          "type": "string"
        },
        {
          "indexed": false,
          "internalType": "uint32",
          "name": "_quantity",
          "type": "uint32"
        }
      ],
      "name": "snackRestocked",
      "type": "event"
    },
    {
      "anonymous": false,
      "inputs": [
        {
          "indexed": false,
          "internalType": "string",
          "name": "_name",
          "type": "string"
        },
        {
          "indexed": false,
          "internalType": "uint32",
          "name": "_amount",
          "type": "uint32"
        }
      ],
      "name": "snackSold",
      "type": "event"
    },
    {
      "inputs": [],
      "name": "getAllSnacks",
      "outputs": [
        {
          "components": [
            {
              "internalType": "uint32",
              "name": "id",
              "type": "uint32"
            },
            {
              "internalType": "string",
              "name": "name",
              "type": "string"
            },
            {
              "internalType": "uint32",
              "name": "quantity",
              "type": "uint32"
            },
            {
              "internalType": "uint8",
              "name": "price",
              "type": "uint8"
            }
          ],
          "internalType": "struct VendingMachine.Snack[]",
          "name": "_stock",
          "type": "tuple[]"
        }
      ],
      "stateMutability": "view",
      "type": "function"
    },
    {
      "inputs": [
        {
          "internalType": "string",
          "name": "_name",
          "type": "string"
        },
        {
          "internalType": "uint32",
          "name": "_quantity",
          "type": "uint32"
        },
        {
          "internalType": "uint8",
          "name": "_price",
          "type": "uint8"
        }
      ],
      "name": "addNewSnacks",
      "outputs": [],
      "stateMutability": "nonpayable",
      "type": "function"
    },
    {
      "inputs": [
        {
          "internalType": "uint32",
          "name": "_id",
          "type": "uint32"
        },
        {
          "internalType": "uint32",
          "name": "_quantity",
          "type": "uint32"
        }
      ],
      "name": "restock",
      "outputs": [],
      "stateMutability": "nonpayable",
      "type": "function"
    },
    {
      "inputs": [],
      "name": "getMachineBalance",
      "outputs": [
        {
          "internalType": "uint256",
          "name": "",
          "type": "uint256"
        }
      ],
      "stateMutability": "view",
      "type": "function"
    },
    {
      "inputs": [],
      "name": "withdraw",
      "outputs": [],
      "stateMutability": "nonpayable",
      "type": "function"
    },
    {
      "inputs": [
        {
          "internalType": "uint32",
          "name": "_id",
          "type": "uint32"
        },
        {
          "internalType": "uint32",
          "name": "_amount",
          "type": "uint32"
        }
      ],
      "name": "buySnack",
      "outputs": [],
      "stateMutability": "payable",
      "type": "function"
    }
  ],
  "bytecode": "0x608060405234801561000f575f80fd5b50335f806101000a81548173ffffffffffffffffffffffffffffffffffffffff021916908373ffffffffffffffffffffffffffffffffffffffff1602179055505f60035f6101000a81548163ffffffff021916908363ffffffff160217905550611a768061007c5f395ff3fe608060405260043610610054575f3560e01c80632208becc146100585780633ccfd60b14610074578063c1777ef01461008a578063c6ffa224146100b2578063ddd4be0b146100da578063e92b4f8e14610104575b5f80fd5b610072600480360381019061006d9190610dc1565b61012e565b005b34801561007f575f80fd5b506100886103b0565b005b348015610095575f80fd5b506100b060048036038101906100ab9190610dc1565b61046b565b005b3480156100bd575f80fd5b506100d860048036038101906100d39190610f71565b61067d565b005b3480156100e5575f80fd5b506100ee610b6f565b6040516100fb9190610ff5565b60405180910390f35b34801561010f575f80fd5b50610118610bcd565b60405161012591906111c1565b60405180910390f35b5f8163ffffffff1611610176576040517f08c379a000000000000000000000000000000000000000000000000000000000815260040161016d9061123b565b60405180910390fd5b8063ffffffff1660018363ffffffff168154811061019757610196611259565b5b905f5260205f2090600302016002015f9054906101000a900463ffffffff1663ffffffff1610156101fd576040517f08c379a00000000000000000000000000000000000000000000000000000000081526004016101f4906112d0565b60405180910390fd5b60018263ffffffff168154811061021757610216611259565b5b905f5260205f20906003020160020160049054906101000a900460ff1660ff1681610242919061131b565b63ffffffff1634101561028a576040517f08c379a0000000000000000000000000000000000000000000000000000000008152600401610281906113a1565b60405180910390fd5b8060018363ffffffff16815481106102a5576102a4611259565b5b905f5260205f2090600302016002015f8282829054906101000a900463ffffffff166102d191906113bf565b92506101000a81548163ffffffff021916908363ffffffff1602179055508060025f8463ffffffff1663ffffffff1681526020019081526020015f206002015f8282829054906101000a900463ffffffff1661032d91906113bf565b92506101000a81548163ffffffff021916908363ffffffff1602179055507fd4578b572aaaa6f7583681fefbde847b283572fc6345c2c41f92c733168f5aa260018363ffffffff168154811061038657610385611259565b5b905f5260205f209060030201600101826040516103a49291906114f5565b60405180910390a15050565b5f8054906101000a900473ffffffffffffffffffffffffffffffffffffffff1673ffffffffffffffffffffffffffffffffffffffff163373ffffffffffffffffffffffffffffffffffffffff1614610406575f80fd5b5f8054906101000a900473ffffffffffffffffffffffffffffffffffffffff1673ffffffffffffffffffffffffffffffffffffffff166108fc4790811502906040515f60405180830381858888f19350505050158015610468573d5f803e3d5ffd5b50565b5f8054906101000a900473ffffffffffffffffffffffffffffffffffffffff1673ffffffffffffffffffffffffffffffffffffffff163373ffffffffffffffffffffffffffffffffffffffff16146104c1575f80fd5b5f8163ffffffff1603610509576040517f08c379a00000000000000000000000000000000000000000000000000000000081526004016105009061156d565b60405180910390fd5b6001805490508263ffffffff161061051f575f80fd5b8060018363ffffffff168154811061053a57610539611259565b5b905f5260205f2090600302016002015f8282829054906101000a900463ffffffff16610566919061158b565b92506101000a81548163ffffffff021916908363ffffffff1602179055508060025f8463ffffffff1663ffffffff1681526020019081526020015f206002015f8282829054906101000a900463ffffffff166105c2919061158b565b92506101000a81548163ffffffff021916908363ffffffff1602179055507f7d88b7f2756c5a4e48a4fdcac5a0e7e8a7a86e46d643eb4d02001e155bffee9760018363ffffffff168154811061061b5761061a611259565b5b905f5260205f20906003020160010160018463ffffffff168154811061064457610643611259565b5b905f5260205f2090600302016002015f9054906101000a900463ffffffff166040516106719291906114f5565b60405180910390a15050565b5f8054906101000a900473ffffffffffffffffffffffffffffffffffffffff1673ffffffffffffffffffffffffffffffffffffffff163373ffffffffffffffffffffffffffffffffffffffff16146106d3575f80fd5b5f835103610716576040517f08c379a000000000000000000000000000000000000000000000000000000000815260040161070d9061160c565b60405180910390fd5b5f8160ff160361075b576040517f08c379a000000000000000000000000000000000000000000000000000000000815260040161075290611674565b60405180910390fd5b5f8263ffffffff16036107a3576040517f08c379a000000000000000000000000000000000000000000000000000000000815260040161079a9061156d565b60405180910390fd5b5f5b6001805490508160ff16101561093d5761086b8460018360ff16815481106107d0576107cf611259565b5b905f5260205f20906003020160010180546107ea90611423565b80601f016020809104026020016040519081016040528092919081815260200182805461081690611423565b80156108615780601f1061083857610100808354040283529160200191610861565b820191905f5260205f20905b81548152906001019060200180831161084457829003601f168201915b5050505050610d1f565b15610874575f80fd5b6109218460025f8460ff1663ffffffff1681526020019081526020015f2060010180546108a090611423565b80601f01602080910402602001604051908101604052809291908181526020018280546108cc90611423565b80156109175780601f106108ee57610100808354040283529160200191610917565b820191905f5260205f20905b8154815290600101906020018083116108fa57829003601f168201915b5050505050610d1f565b1561092a575f80fd5b808061093590611692565b9150506107a5565b505f604051806080016040528060035f9054906101000a900463ffffffff1663ffffffff1681526020018581526020018463ffffffff1681526020016008600a8561098891906116ba565b1860ff168152509050600181908060018154018082558091505060019003905f5260205f2090600302015f909190919091505f820151815f015f6101000a81548163ffffffff021916908363ffffffff16021790555060208201518160010190816109f39190611881565b506040820151816002015f6101000a81548163ffffffff021916908363ffffffff16021790555060608201518160020160046101000a81548160ff021916908360ff16021790555050508060025f60035f9054906101000a900463ffffffff1663ffffffff1663ffffffff1681526020019081526020015f205f820151815f015f6101000a81548163ffffffff021916908363ffffffff1602179055506020820151816001019081610aa59190611881565b506040820151816002015f6101000a81548163ffffffff021916908363ffffffff16021790555060608201518160020160046101000a81548160ff021916908360ff16021790555090505060035f81819054906101000a900463ffffffff1680929190610b1190611950565b91906101000a81548163ffffffff021916908363ffffffff160217905550507f352f7027b591c43190b5baa09b6f329c4a23f8f202e0f8b0b0004b4fa78dec5d8483604051610b619291906119c2565b60405180910390a150505050565b5f805f9054906101000a900473ffffffffffffffffffffffffffffffffffffffff1673ffffffffffffffffffffffffffffffffffffffff163373ffffffffffffffffffffffffffffffffffffffff1614610bc7575f80fd5b47905090565b60606001805480602002602001604051908101604052809291908181526020015f905b82821015610d16578382905f5260205f2090600302016040518060800160405290815f82015f9054906101000a900463ffffffff1663ffffffff1663ffffffff168152602001600182018054610c4590611423565b80601f0160208091040260200160405190810160405280929190818152602001828054610c7190611423565b8015610cbc5780601f10610c9357610100808354040283529160200191610cbc565b820191905f5260205f20905b815481529060010190602001808311610c9f57829003601f168201915b50505050508152602001600282015f9054906101000a900463ffffffff1663ffffffff1663ffffffff1681526020016002820160049054906101000a900460ff1660ff1660ff168152505081526020019060010190610bf0565b50505050905090565b5f81604051602001610d319190611a2a565b6040516020818303038152906040528051906020012083604051602001610d589190611a2a565b6040516020818303038152906040528051906020012014905092915050565b5f604051905090565b5f80fd5b5f80fd5b5f63ffffffff82169050919050565b610da081610d88565b8114610daa575f80fd5b50565b5f81359050610dbb81610d97565b92915050565b5f8060408385031215610dd757610dd6610d80565b5b5f610de485828601610dad565b9250506020610df585828601610dad565b9150509250929050565b5f80fd5b5f80fd5b5f601f19601f8301169050919050565b7f4e487b71000000000000000000000000000000000000000000000000000000005f52604160045260245ffd5b610e4d82610e07565b810181811067ffffffffffffffff82111715610e6c57610e6b610e17565b5b80604052505050565b5f610e7e610d77565b9050610e8a8282610e44565b919050565b5f67ffffffffffffffff821115610ea957610ea8610e17565b5b610eb282610e07565b9050602081019050919050565b828183375f83830152505050565b5f610edf610eda84610e8f565b610e75565b905082815260208101848484011115610efb57610efa610e03565b5b610f06848285610ebf565b509392505050565b5f82601f830112610f2257610f21610dff565b5b8135610f32848260208601610ecd565b91505092915050565b5f60ff82169050919050565b610f5081610f3b565b8114610f5a575f80fd5b50565b5f81359050610f6b81610f47565b92915050565b5f805f60608486031215610f8857610f87610d80565b5b5f84013567ffffffffffffffff811115610fa557610fa4610d84565b5b610fb186828701610f0e565b9350506020610fc286828701610dad565b9250506040610fd386828701610f5d565b9150509250925092565b5f819050919050565b610fef81610fdd565b82525050565b5f6020820190506110085f830184610fe6565b92915050565b5f81519050919050565b5f82825260208201905092915050565b5f819050602082019050919050565b61104081610d88565b82525050565b5f81519050919050565b5f82825260208201905092915050565b5f5b8381101561107d578082015181840152602081019050611062565b5f8484015250505050565b5f61109282611046565b61109c8185611050565b93506110ac818560208601611060565b6110b581610e07565b840191505092915050565b6110c981610f3b565b82525050565b5f608083015f8301516110e45f860182611037565b50602083015184820360208601526110fc8282611088565b91505060408301516111116040860182611037565b50606083015161112460608601826110c0565b508091505092915050565b5f61113a83836110cf565b905092915050565b5f602082019050919050565b5f6111588261100e565b6111628185611018565b93508360208202850161117485611028565b805f5b858110156111af5784840389528151611190858261112f565b945061119b83611142565b925060208a01995050600181019050611177565b50829750879550505050505092915050565b5f6020820190508181035f8301526111d9818461114e565b905092915050565b5f82825260208201905092915050565b7f496e636f727265637420616d6f756e74000000000000000000000000000000005f82015250565b5f6112256010836111e1565b9150611230826111f1565b602082019050919050565b5f6020820190508181035f83015261125281611219565b9050919050565b7f4e487b71000000000000000000000000000000000000000000000000000000005f52603260045260245ffd5b7f496e73756666696369656e74207175616e7469747900000000000000000000005f82015250565b5f6112ba6015836111e1565b91506112c582611286565b602082019050919050565b5f6020820190508181035f8301526112e7816112ae565b9050919050565b7f4e487b71000000000000000000000000000000000000000000000000000000005f52601160045260245ffd5b5f61132582610d88565b915061133083610d88565b925082820261133e81610d88565b91508082146113505761134f6112ee565b5b5092915050565b7f4e6f206d6f6e65790000000000000000000000000000000000000000000000005f82015250565b5f61138b6008836111e1565b915061139682611357565b602082019050919050565b5f6020820190508181035f8301526113b88161137f565b9050919050565b5f6113c982610d88565b91506113d483610d88565b9250828203905063ffffffff8111156113f0576113ef6112ee565b5b92915050565b7f4e487b71000000000000000000000000000000000000000000000000000000005f52602260045260245ffd5b5f600282049050600182168061143a57607f821691505b60208210810361144d5761144c6113f6565b5b50919050565b5f819050815f5260205f209050919050565b5f815461147181611423565b61147b81866111e1565b9450600182165f811461149557600181146114ab576114dd565b60ff1983168652811515602002860193506114dd565b6114b485611453565b5f5b838110156114d5578154818901526001820191506020810190506114b6565b808801955050505b50505092915050565b6114ef81610d88565b82525050565b5f6040820190508181035f83015261150d8185611465565b905061151c60208301846114e6565b9392505050565b7f4e756c6c207175616e74697479000000000000000000000000000000000000005f82015250565b5f611557600d836111e1565b915061156282611523565b602082019050919050565b5f6020820190508181035f8301526115848161154b565b9050919050565b5f61159582610d88565b91506115a083610d88565b9250828201905063ffffffff8111156115bc576115bb6112ee565b5b92915050565b7f4e756c6c206e616d6500000000000000000000000000000000000000000000005f82015250565b5f6115f66009836111e1565b9150611601826115c2565b602082019050919050565b5f6020820190508181035f830152611623816115ea565b9050919050565b7f4e756c6c207072696365000000000000000000000000000000000000000000005f82015250565b5f61165e600a836111e1565b91506116698261162a565b602082019050919050565b5f6020820190508181035f83015261168b81611652565b9050919050565b5f61169c82610f3b565b915060ff82036116af576116ae6112ee565b5b600182019050919050565b5f6116c482610f3b565b91506116cf83610f3b565b92508282026116dd81610f3b565b91508082146116ef576116ee6112ee565b5b5092915050565b5f6020601f8301049050919050565b5f82821b905092915050565b5f600883026117407fffffffffffffffffffffffffffffffffffffffffffffffffffffffffffffffff82611705565b61174a8683611705565b95508019841693508086168417925050509392505050565b5f819050919050565b5f61178561178061177b84610fdd565b611762565b610fdd565b9050919050565b5f819050919050565b61179e8361176b565b6117b26117aa8261178c565b848454611711565b825550505050565b5f90565b6117c66117ba565b6117d1818484611795565b505050565b5b818110156117f4576117e95f826117be565b6001810190506117d7565b5050565b601f8211156118395761180a81611453565b611813846116f6565b81016020851015611822578190505b61183661182e856116f6565b8301826117d6565b50505b505050565b5f82821c905092915050565b5f6118595f198460080261183e565b1980831691505092915050565b5f611871838361184a565b9150826002028217905092915050565b61188a82611046565b67ffffffffffffffff8111156118a3576118a2610e17565b5b6118ad8254611423565b6118b88282856117f8565b5f60209050601f8311600181146118e9575f84156118d7578287015190505b6118e18582611866565b865550611948565b601f1984166118f786611453565b5f5b8281101561191e578489015182556001820191506020850194506020810190506118f9565b8683101561193b5784890151611937601f89168261184a565b8355505b6001600288020188555050505b505050505050565b5f61195a82610d88565b915063ffffffff82036119705761196f6112ee565b5b600182019050919050565b5f61198582611046565b61198f81856111e1565b935061199f818560208601611060565b6119a881610e07565b840191505092915050565b6119bc81610f3b565b82525050565b5f6040820190508181035f8301526119da818561197b565b90506119e960208301846119b3565b9392505050565b5f81905092915050565b5f611a0482611046565b611a0e81856119f0565b9350611a1e818560208601611060565b80840191505092915050565b5f611a3582846119fa565b91508190509291505056fea2646970667358221220646e0f5d40ea8f3a6a23bfcffc13ee319284290330df37af33c544409dfb055d64736f6c63430008140033",
  "immutableReferences": {},
  "source": "// SPDX-License-Identifier: GPL-3.0\r\n\r\npragma solidity 0.8.20;\r\n\r\ncontract VendingMachine  {\r\n\r\n     address payable private owner;\r\n\r\n    struct Snack {\r\n        uint32 id;\r\n        string name;\r\n        uint32 quantity;\r\n        uint8 price;\r\n    }\r\n\r\n    \r\n    //Variables\r\n    Snack [] stock;\r\n    mapping(uint32 => Snack) stock1;\r\n\r\n\r\n    uint32 totalSnacks;\r\n\r\n\r\n    //Events\r\n    event newSnackAdded (string _name, uint8 _price);\r\n    event snackRestocked (string _name, uint32 _quantity);\r\n    event snackSold(string _name, uint32 _amount);\r\n\r\n\r\n    constructor () {\r\n        owner = payable(msg.sender);\r\n        totalSnacks = 0;\r\n    }\r\n\r\n    \r\n    modifier onlyOwner () {\r\n        require(msg.sender == owner);\r\n        _;  \r\n    }\r\n    \r\n\r\n    // Functions\r\n\r\n    function getAllSnacks () external view returns (Snack [] memory _stock) {\r\n        return stock;\r\n    }\r\n\r\n\r\n    //Function add new snacks\r\n    function addNewSnacks (string memory _name, uint32 _quantity, uint8 _price) external onlyOwner {\r\n\r\n        //Checking\r\n        require (bytes(_name).length != 0, \"Null name\");\r\n        require(_price!=0, \"Null price\");\r\n        require(_quantity != 0, \"Null quantity\");\r\n\r\n        for (uint8 i = 0; i<stock.length; i++){\r\n            require(!compareStrings (_name, stock[i].name));\r\n            require(!compareStrings (_name, stock1[i].name));\r\n        }\r\n\r\n\r\n        Snack memory newSnack = Snack (totalSnacks, _name, _quantity, _price*10^8);\r\n        stock.push(newSnack);\r\n        stock1[totalSnacks] = newSnack;\r\n        totalSnacks++;\r\n\r\n\r\n        emit newSnackAdded (_name, _price);\r\n\r\n    }\r\n\r\n\r\n    //Funcion restock products\r\n    function restock (uint32 _id, uint32 _quantity) external onlyOwner {\r\n        require(_quantity != 0, \"Null quantity\");\r\n        require (_id < stock.length);\r\n\r\n        stock [_id].quantity+=_quantity;\r\n        stock1[_id].quantity+=_quantity;\r\n\r\n        emit snackRestocked(stock[_id].name, stock[_id].quantity);\r\n    }\r\n\r\n\r\n    // The owner access to see the machines balance\r\n    function getMachineBalance () external view onlyOwner returns(uint){\r\n        return address(this).balance;\r\n    }\r\n\r\n    //balance machine is transferred to the owner\r\n    function withdraw() external onlyOwner {\r\n        owner.transfer (address(this).balance);\r\n    } \r\n\r\n\r\n    //Anyone can buy on the machine\r\n    function buySnack (uint32 _id, uint32 _amount) external payable {\r\n        require(_amount > 0, \"Incorrect amount\");\r\n        require (stock[_id].quantity >= _amount, \"Insufficient quantity\");\r\n        require (msg.value >= _amount*stock[_id].price, \"No money\");\r\n\r\n        stock[_id].quantity -= _amount; \r\n        stock1[_id].quantity -= _amount;\r\n\r\n\r\n        emit snackSold(stock[_id].name, _amount);\r\n    }\r\n\r\n\r\n\r\n    function compareStrings (string memory a, string memory b) internal pure returns (bool)\r\n    {\r\n        return(keccak256(abi.encodePacked(a)) == keccak256(abi.encodePacked(b)));\r\n    }\r\n\r\n    \r\n}",
  "sourcePath": "C:\\Users\\Usuario\\Desktop\\Proyecto_truffle\\contracts\\VendingMachine.sol",
  "compiler": {
    "name": "solc",
    "version": "0.8.20+commit.a1b79de6.Emscripten.clang"
  },
  "schemaVersion": "3.4.7",
  "updatedAt": "2025-02-15T10:24:44.006Z",
  "devdoc": {
    "kind": "dev",
    "methods": {},
    "version": 1
  },
  "userdoc": {
    "kind": "user",
    "methods": {},
    "version": 1
  }
}